:020000040800F2
:1000000000000820F1670008292600082B260008B8
:100010002D2600082F2600083126000800000000C9
:100020000000000000000000000000005165000812
:100030003326000800000000F1650008556600083E
:1000400041680008416800084168000841680008EC
:1000500041680008416800084168000841680008DC
:1000600041680008416800084168000841680008CC
:1000700041680008416800084168000841680008BC
:1000800041680008416800084168000841680008AC
:10009000416800084168000841680008416800089C
:1000A00041680008352600084168000841680008DA
:1000B000416800084168000841680008416800087C
:1000C000416800084168000841680008416800086C
:1000D000416800084168000841680008416800085C
:1000E000416800084168000841680008416800084C
:1000F000416800084168000841680008416800083C
:10010000416800084168000841680008416800082B
:10011000416800084168000841680008416800081B
:10012000416800084168000841680008416800080B
:1001300041680008416800084168000841680008FB
:1001400041680008416800084168000841680008EB
:1001500041680008416800084168000841680008DB
:1001600041680008416800084168000841680008CB
:10017000416800084168000841680008000000006C
:1001800041680008416800084168000841680008AB
:10019000416800084168000841680008416800089B
:1001A000416800084168000841680008416800088B
:1001B000416800084168000841680008416800087B
:1001C000416800084168000800000000416800081C
:1001D000416800084168000841680008416800085B
:1001E000416800084168000841680008416800084B
:0801F0004168000841680008A5
:1002000010B5054C237833B9044B13B10448AFF350
:1002100000800123237010BD380200200000000080
:10022000F096000808B5034B1BB103490348AFF330
:10023000008008BD000000003C020020F09600088D
:10024000034613F8012B002AFBD1181A0138704716
:1002500001F0FF01102A2BDB10F0070F08D010F877
:10026000013B013A8B422DD010F0070F42B3F6D17B
:10027000F0B441EA012141EA014122F007047FF094
:1002800000070023F0E80256083C85EA010586EAEB
:10029000010685FA47F5A3FA87F586FA47F6A5FA27
:1002A00087F68EB9EED1F0BC01F0FF0102F0070233
:1002B00032B110F8013B013A83EA010313B1F8D1DE
:1002C0000020704701387047002D06BF35460338BF
:1002D000073815F0010F07D1013015F4807F02BFF8
:1002E000013015F4C03F0130F0BC0138704700BF49
:1002F00053B94AB9002908BF00281CBF4FF0FF318D
:100300004FF0FF3000F06EB9ADF1080C6DE904CE8E
:1003100000F006F8DDF804E0DDE9022304B07047E0
:100320002DE9F047089D04468C46002B40F0838061
:100330008A42174647D9B2FA82F242B1C2F120008E
:1003400024FA00F09140974040EA010C94404FEAB3
:100350001748230CBCFBF8F61FFA87FE08FB16C1F2
:1003600043EA014306FB0EF1994209D9FB1806F155
:10037000FF3080F01981994240F21681023E3B44E1
:100380005B1AA4B2B3FBF8F008FB103344EA034451
:1003900000FB0EFEA64509D93C1900F1FF3380F0A1
:1003A0000581A64540F2028102383C4440EA0640FD
:1003B000A4EB0E0400261DB1D4400023C5E9004380
:1003C0003146BDE8F08702B9FFDEB2FA82F2002AB8
:1003D00050D1CB1B4FEA174E1FFA87F80126B3FB0B
:1003E000FEFC210C0EFB1C3341EA034108FB0CF31D
:1003F0008B4207D979180CF1FF3002D28B4200F200
:10040000E9808446C91AA3B2B1FBFEF00EFB1011BD
:1004100043EA014408FB00F8A04507D93C1900F164
:10042000FF3302D2A04500F2D9801846A4EB08049D
:1004300040EA0C40BFE78B4209D9002D00F0B180A3
:100440000026C5E9000130463146BDE8F087B3FA21
:1004500083F6002E4AD18B4202D3824200F2B8804A
:10046000841A61EB030101208C46002DA8D0C5E958
:10047000004CA5E7C2F1200320FA03F6974001FAE9
:1004800002F04FEA174ED9403043030CB1FBFEF6A1
:100490001FFA87F80EFB161143EA014306FB08F129
:1004A000994204FA02F409D9FB1806F1FF3C80F0E6
:1004B0008D80994240F28A80023E3B445B1A81B2B1
:1004C000B3FBFEF00EFB103341EA034100FB08F3DF
:1004D0008B4207D9791800F1FF3C73D28B4271D956
:1004E00002383944CB1A40EA064678E7C6F1200CB8
:1004F00003FA06F422FA0CF31C4320FA0CF701FA73
:1005000006F34FEA144E21FA0CF11F433B0CB1FBEA
:10051000FEF91FFA84F80EFB191143EA014109FBA9
:1005200008FA8A4502FA06F200FA06F308D96118B9
:1005300009F1FF3048D28A4546D9A9F10209214480
:10054000A1EB0A01BFB2B1FBFEF00EFB101147EAAE
:10055000014700FB08F8B84507D9E71900F1FF315A
:100560002ED2B8452CD90238274440EA0940A7EBDF
:100570000807A0FB02894F45C64649461AD317D043
:100580005DB1B3EB0E0267EB010707FA0CFCF2401A
:100590004CEA0202F740C5E9002700263146BDE8D3
:1005A000F0872E4628460BE70646E9E61846FDE6A4
:1005B0004345E5D2B8EB020E69EB04010138DFE7F1
:1005C0000846D2E760468DE78146B9E7664675E79B
:1005D00030464AE7ACF1020C394413E702383C4498
:1005E00024E700BF704700BF2DE9F04184B080468A
:1005F0000F4616461D46012407E00E4803F002FB95
:1006000001F02EFF012005F065F97CB14FF47A74FA
:1006100002940196009501233A4608FA03F1054831
:1006200003F009FB04460028EFD0E6E7204604B0BB
:10063000BDE8F081944B00202DE9F04184B00746DD
:100640000E4615461C464FF0010807E00F4803F020
:10065000D9FA01F005FF012005F03CF9B8F1000FCF
:100660000FD079004FF47A7302930195009401231F
:1006700032461944054803F0B5FB80460028EDD00A
:10068000E4E7404604B0BDE8F08100BF944B002091
:1006900010B5044605F00CF8206010BD38B50446CE
:1006A000C578437813F0010F09D005F03F00C0086A
:1006B00005F007010131074B1B6803B198476378C8
:1006C00013F0080F04D0034B5B680BB1A8099847DF
:1006D000002038BD5402002008B5C8234FF48062C2
:1006E000024940F6F63001F083FA08BD4097000851
:1006F00010B586B004464A4B1B68ADF80C301B0C95
:100700008DF80E30474B1B68ADF808301B0C8DF888
:100710000A30454B1B68ADF804301B0C8DF80630D1
:10072000424B1B68ADF800301B0C8DF8023000F016
:10073000030106AB194411F80C3C8DF81430C0F3DA
:10074000C10206AB1A4412F80C3C8DF81530C0F308
:10075000811306A8034413F80C0C8DF8160011F849
:10076000101C8DF8101012F8102C8DF8112013F8B1
:10077000103C8DF8123005AA032140F2264001F00A
:10078000FDF9002840D104AA032140F22A4001F0DB
:10079000F5F900283BD1019BADF814301B0C8DF806
:1007A0001630009BADF810301B0C8DF8123014F091
:1007B000040F05D037238DF8143027238DF810301F
:1007C00014F0200F05D057238DF8153047238DF8EE
:1007D000113014F4807F05D077238DF8163067230D
:1007E0008DF8123005AA03214FF4886001F0C6F994
:1007F00080B904AA032140F2314001F0BFF960B989
:100800000B4B1C8106B010BD4FF0FF30FAE74FF0E4
:10081000FF30F7E74FF0FF30F4E74FF0FF30F1E73C
:10082000089700080C970008109700081497000814
:100830005402002010B586B00446164B93E807001A
:1008400006AB03E90700C82C1AD8C82393FBF4F3BE
:10085000013B1A0E8DF804208DF8053001AA022103
:1008600040F2162001F08AF968B903AA0C2140F67B
:10087000C12001F083F948B9074B9C8106B010BD37
:100880004FF0FF30FAE74FF0FF30F7E74FF0FF305F
:10089000F4E700BF189700085402002010F0070F7B
:1008A00000F0BE8010B52DED028B82B00446B1F58C
:1008B000C86F00F2B88007EE901AF8EE677A9FEDE5
:1008C000637A87EE878A0DF1030000F073FD9DF8CF
:1008D0000330023B0E2B00F2A980DFE803F008A7EB
:1008E0002FA7A7A742A7A7A7A7A7A7A75500DFEDF0
:1008F000587A68EE277AFCEEE77A17EE903A9BB2C8
:10090000DFED547A28EE278ABCEEC88A18EE102A4A
:1009100092B2190A8DF804108DF80530130A8DF87B
:1009200006308DF8072014F0010F40D114F0020FAB
:1009300051D114F0040F61D1002079E0DFED467A47
:1009400068EE277AFCEEE77A17EE903A9BB2DFED7D
:10095000437A28EE278ABCEEC88A18EE102A92B293
:10096000D7E7DFED3F7A68EE277AFCEEE77A17EEFD
:10097000903A9BB2DFED3B7A28EE278ABCEEC88A1C
:1009800018EE102A92B2C4E7DFED377A68EE277AC4
:10099000FCEEE77A17EE903A9BB2DFED347A28EE60
:1009A000278ABCEEC88A18EE102A92B2B1E701AAD3
:1009B00002214FF4EA7001F0E1F800283CD10DF17A
:1009C000060202214FF4927001F0D8F80028ADD051
:1009D0004FF0FF302CE001AA02214FF4EC7001F03F
:1009E000CDF860BB0DF1060202214FF4947001F0C6
:1009F000C5F800289DD04FF0FF3019E001AA022170
:100A00004FF4EE7001F0BAF8E0B90DF106020221E0
:100A10004FF4967001F0B2F850B14FF0FF3007E09C
:100A20004FF0FF3070474FF0FF3001E04FF0FF30E4
:100A300002B0BDEC028B10BD4FF0FF30F8E74FF075
:100A4000FF30F5E74FF0FF30F2E700BF000048430A
:100A50000000804600004046000000460000C045FF
:100A60000000804500004045000000450000C044F3
:100A700000B583B000238DF8073010F0010F02D0CD
:100A800030238DF8073010F0020F05D09DF80730A5
:100A900043F00C038DF8073010F0040F05D09DF8DB
:100AA000073043F003038DF807300DF107020121F1
:100AB0004FF4A47001F062F803B05DF804FB00B5D8
:100AC00083B020B10346042802D9042300E00123A7
:100AD000013B8DF807300DF10702012140F24F1064
:100AE00001F04CF803B05DF804FB000000B583B0E2
:100AF000094BA3FB0030830A8DF80430C0F3870054
:100B00008DF8050001AA02214FF4EF7001F036F8CC
:100B100003B05DF804FB00BFCDCCCCCC00B583B0F6
:100B2000094BA3FB0030830A8DF80430C0F3870023
:100B30008DF8050001AA02214FF4ED7001F01EF8B6
:100B400003B05DF804FB00BFCDCCCCCC00B583B0C6
:100B50000E4B83FB0023C017C0EBA31001FB00F07A
:100B6000030E8DF80430C0F307438DF80530C0F351
:100B700007238DF806308DF8070001AA04214FF4F1
:100B8000AE7000F0FBFF03B05DF804FBD34D6210C4
:100B900000B583B0084BA3FB00308308800A8DF8B2
:100BA00004008DF8053001AA02214FF4AD7000F069
:100BB000E5FF03B05DF804FBCDCCCCCC00B583B031
:100BC000084BA3FB00308308800A8DF804008DF8E1
:100BD000053001AA02214FF4AC7000F0CFFF03B042
:100BE0005DF804FBCDCCCCCC00B585B068B10D4A26
:100BF00001AB07CA03C31A7001AA09214FF4976019
:100C000000F0BCFF05B05DF804FB074A01AB07CA62
:100C100003C31A7001AA09214FF4976000F0AEFFD8
:100C2000F0E700BF289700083497000800B583B0AC
:100C3000B0B1C0238DF80430C2238DF80530C42331
:100C40008DF80630C6238DF8073001AA042140F63E
:100C5000982000F093FF00F065FA03B05DF804FB04
:100C60004FF08B330193F0E700B583B0B0B1202390
:100C70008DF8043028238DF8053030238DF80630A8
:100C800038238DF8073001AA042140F69E2000F099
:100C900075FF00F047FA03B05DF804FB4FF0A33393
:100CA0000193F0E72DE9F04184B0044602238DF86A
:100CB0000430CA238DF80530E3238DF8063009236C
:100CC0008DF8073001AA0421682000F057FFA32304
:100CD0008DF8043014F0400800F0B080C0238DF887
:100CE0000530C8238DF80630C2238DF8073014F480
:100CF000C07500F0AB80C4238DF80830CC238DF88C
:100D00000930C6238DF80A30A3238DF80B308DF8F7
:100D10000C308DF80D3001AA0A2140F6A72000F012
:100D20002DFF14F0030700F0998020238DF8043084
:100D300001AA012140F6B62000F020FF14F0200F98
:100D400000F090800120FFF74FFFADB114F4807FD9
:100D500000F08C80B2238DF804308B238DF80530A1
:100D6000B6238DF806309B238DF8073001AA0421A5
:100D700040F6A22000F002FF14F0010F00F0838083
:100D8000F8238DF8043001AA01214FF40B6000F024
:100D9000F5FEFA210720FFF781FD0720FFF768FE27
:100DA0000120FFF78CFE6420FFF7A0FE4FF4FA70DD
:100DB000FFF7B4FEC8213F48FFF7C8FE2820FFF721
:100DC000E7FE0A20FFF7FAFE14F0020F65D0D923E0
:100DD0008DF8043001AA012140F23D7000F0CEFEF2
:100DE00014F0040F5DD00120FFF720FF14F0100F66
:100DF0005BD00120FFF738FF2F4E44F008037381CA
:100E000000F090F90023B373B8F1000F01D006226F
:100E1000B2731DB1284A937B0633937314F0140FF9
:100E200003D0254A937B103393731FB1224A937BDF
:100E300004339373002004B0BDE8F081A3238DF840
:100E400005308DF806308DF8073050E7A3238DF874
:100E500008308DF809308DF80A3055E7D8238DF821
:100E6000043065E70020FFF7BFFE6EE7B0238DF882
:100E7000043080238DF80530B4238DF8063090239C
:100E80008DF8073072E7D8238DF8043001AA0121CC
:100E90004FF40B6000F072FE96E7D8238DF8043013
:100EA00098E70020FFF7C2FEA0E70020FFF7DCFE76
:100EB000A2E700BF09E3CA02540200202DE9F0476F
:100EC00088B006460F4692469846109D00232B8018
:100ED000119A69466C4B987B00F054FB002840F057
:100EE000D0808146684B598911F0140F5BD09DF872
:100EF00000309DF80100000440EA03609DF80220E4
:100F000040EA02209DF803402043CAF800009DF803
:100F100004309DF805C04FEA0C4C4CEA036C9DF878
:100F200006304CEA032C9DF807204CEA020CCAF864
:100F300004C09DF808409DF80920120442EA0462AA
:100F40009DF80A4042EA04229DF80B402243CAF869
:100F500008209DF80C409DF80D301B0443EA046303
:100F60009DF80E4043EA04239DF80F401C43CAF845
:100F70000C401CFB3CFC10FB30C012FB320214FB8B
:100F8000342404F17144B4F1007F05D82B8843F474
:100F900080732B80102207E000F0C4F800232B8020
:100FA0004FF0FF3964E0002211F0400F2BD008AB66
:100FB000134413F8204C501C08AB184410F8203C84
:100FC00043EA04233B80931C08A8034413F8204CF5
:100FD000D01C08AB184410F8203C43EA04237B8063
:100FE000131D08A8034413F8204C501D08AB1844E7
:100FF00010F8203C43EA0423BB800632D2B22B888F
:1010000043F008032B8011F4C07F2BD008AB1344AE
:1010100013F8204C501C08AB184410F8203C43EA4D
:1010200004233380931C08A8034413F8204CD01CDD
:1010300008AB184410F8203C43EA04237380131DC6
:1010400008A8034413F8204C501D08AB184410F8AE
:10105000203C43EA0423B3800632D2B22B8843F00B
:1010600070032B8011F0030F06D14046FFF710FBF1
:10107000484608B0BDE8F0870DEB0200FFF70EFB15
:10108000F3E74FF0FF39F3E75402002000B583B0D7
:10109000234B93F82430CBB1A0B102238DF8073055
:1010A0001F4B586819680DF107030122497C00782D
:1010B000FFF79AFA48BB9DF80720194B5A7403B002
:1010C0005DF804FB00238DF80730E9E7144B9B7AA9
:1010D000F3B110B1124B5B7CEBB990B101238DF8E9
:1010E00007300F4B586819680DF107030122497C3E
:1010F0000078FFF779FA80B99DF80720084B5A74F9
:10110000DDE700238DF80730EBE74FF0FF30D6E73F
:101110004FF0FF30D3E70020D1E74FF0FF30CEE7AC
:10112000000000207C4B9B7A002B00F0D48000B59F
:1011300083B000238DF80730774B586819680DF19C
:1011400007030122497C0078FFF74EFA002840F09F
:10115000C580714B586819680DF107030122497960
:101160000078FFF741FA002840F0BB806A4B5868CE
:1011700019680DF10703012209790078FFF734FAA5
:10118000002840F0B180644B93F82430002B52D0FB
:101190000C238DF80730604B586819680DF1070370
:1011A000012209790078FFF71FFA002840F09F809C
:1011B000322004F08FFBC0238DF80730564B9B7A0A
:1011C00013F0010F02D0E0238DF80730524B58681E
:1011D00019680DF10703012209790078FFF704FA75
:1011E000002840F087804C4B5B7C03B302238DF8D2
:1011F0000730494B586819680DF107030122497CF3
:101200000078FFF7F1F9002877D100238DF8073037
:10121000414B586819680DF107030122497900789C
:10122000FFF7E2F900286BD103B05DF804FB00235F
:101230008DF80730DDE704238DF80730364B58680A
:1012400019680DF10703012209790078FFF7CCF93D
:10125000002858D1304B9B7C23B92F4B9B7A13F03D
:10126000010F30D140238DF807302B4B5868196897
:101270000DF10703012209790078FFF7B5F900287D
:1012800044D1322004F026FB234B5B7CFBB10123CD
:101290008DF80730204B586819680DF107030122BB
:1012A000497C0078FFF7A0F998BB1B4B586853F8AE
:1012B000101B012249790078FFF796F90028B3D076
:1012C0004FF0FF30B0E760238DF80730CDE7002303
:1012D0008DF80730DEE74FF0FF3070474FF0FF30FA
:1012E000A2E74FF0FF309FE74FF0FF309CE74FF051
:1012F000FF3099E74FF0FF3096E74FF0FF3093E76C
:101300004FF0FF3090E74FF0FF308DE74FF0FF30A8
:101310008AE74FF0FF3087E700000020244B9B7ADC
:10132000002B3CD000B583B0B0F57A7F33D00BD81A
:10133000FA2813D0B0F5FA7F03D108238DF80730CF
:101340000FE04FF0FF3023E0B0F5FA6F03D1182320
:101350008DF8073005E04FF0FF3019E000238DF8DD
:101360000730134B1B7A9DF80720B3EBD20F19D02F
:101370000F4B586819680DF107030122897900782D
:10138000FFF732F980B99DF80730DB08084A13727D
:1013900003B05DF804FB10238DF80730E1E74FF050
:1013A000FF3070470020F3E74FF0FF30F0E700BF59
:1013B000000000200F4B5B7A032B16D8DFE803F008
:1013C000020C0F12022303700A4BDB7C83B10378FB
:1013D0005B0003700020704704230370F4E70823C8
:1013E0000370F1E710230370EEE74FF0FF30704712
:1013F0000020704700000020234B9B7A002B37D041
:1014000000B583B002380E2835D8DFE800F0083484
:101410002534343429343434343434342D00002326
:101420008DF80730184B5B7A9DF80720B3EBD20F8D
:1014300024D0154B586819680DF107030122C979AA
:101440000078FFF7D1F8D8B99DF80730DB080E4ACD
:10145000537203B05DF804FB08238DF80730E1E711
:1014600010238DF80730DDE718238DF80730D9E712
:101470004FF0FF3070474FF0FF30EAE70020E8E719
:101480004FF0FF30E5E700BF00000020234B9B7AC0
:10149000002B3AD000B583B0BB281AD901238DF8B0
:1014A00007301E4BDA7A9DF807309A4230D01B4B3A
:1014B000586819680DF10703012289780078FFF751
:1014C00093F838BB9DF80720144BDA7203B05DF82F
:1014D00004FB612803D902238DF80730E1E72928AE
:1014E00003D903238DF80730DBE7132803D904233E
:1014F0008DF80730D5E7092803D905238DF8073083
:10150000CFE706238DF80730CBE74FF0FF30704769
:101510000020DBE74FF0FF30D8E700BF00000020DD
:1015200070B5174B93F824302BBB00F0FE04144B1E
:101530009B7A13B3124A167C23401374A3420BD038
:101540004FF0FF3514B90E4B1B7D3BB10120FFF767
:101550009DFD3CB9284670BD0025F3E70020FFF74C
:1015600095FDF6E7FFF7DEFD0028F3D0044B1E746F
:101570004FF0FF35EEE70025ECE74FF0FF35E9E7E8
:10158000000000202E4B93F82430002B49D0F0B5FA
:1015900083B005460F461646294B9B7A002B43D055
:1015A000274B5868196801AB0222097B0078FFF7C6
:1015B00043F800283BD19DF804009DF8054044EA1B
:1015C0000024AC4223D31E4B58684388B4EB530F1E
:1015D0000DD91B4B196801AB0122C97C0078FFF7BC
:1015E0002BF838BB9DF8043013F0100F14D1144BB6
:1015F000586819683B462A46497B0078FFF71CF873
:10160000D8B9B4FBF5F4013C347003B0F0BD00234D
:1016100033704FF0FF30F8E7FFF784FD6FF0010003
:10162000F3E74FF0FF3070474FF0FF30EDE74FF03A
:10163000FF30EAE74FF0FF30E7E74FF0FF30E4E735
:1016400000000020584B9B7C834200F09C8010B52A
:1016500082B00446002844D0534B586819680DF1F5
:101660000703012209790078FEF7E6FF002840F021
:101670008C809DF8073023F020038DF807304A4B0B
:10168000586819680DF10703012209790078FEF7FF
:10169000ABFF00287CD1032004F01CF902238DF855
:1016A0000730414B93F8223013B182238DF8073075
:1016B0003D4B93F823302BB19DF8073043F03003B6
:1016C0008DF80730384B586819680DF1070301226F
:1016D000C97D0078FEF788FF002844D04FF0FF3026
:1016E00044E0314B586819680DF10703012209796C
:1016F0000078FEF7A1FF00284DD12B4B9B7A13F009
:10170000010F35D09DF8073043F020038DF80730E6
:10171000254B586819680DF10703012209790078F3
:10172000FEF762FF002839D1032004F0D3F81E4BE6
:1017300093F822301BB380238DF807301A4B93F8AF
:1017400023302BB19DF8073043F030038DF807307C
:10175000154B586819680DF107030122C97D0078FF
:10176000FEF742FFE8B9104B9C74002002B010BD98
:101770009DF8073023F020038DF80730C8E70023D9
:101780008DF80730DAE7002070474FF0FF30EDE7C3
:101790004FF0FF30EAE74FF0FF30E7E74FF0FF3060
:1017A000E4E74FF0FF30E1E7000000201B4B93F827
:1017B000233083422DD010B582B0044628B33023A5
:1017C0008DF80730154B9B7C2BB19DF8073043F00B
:1017D00002038DF80730114B93F822302BB19DF89E
:1017E000073063F07F038DF807300C4B5868196899
:1017F0000DF107030122C97D0078FEF7F5FE50B90F
:10180000064B83F8234002B010BD00238DF807304B
:10181000D8E7002070474FF0FF30F4E700000020C9
:1018200010B582B028285ED80446D0B90020FFF752
:10183000BDFF00238DF8043007238DF805302E4BB3
:101840005868196801AB0222497D0078FEF7CCFE8A
:10185000044600284AD1284B00221A75204602B0BF
:1018600010BD0120FFF7A2FF20238DF80430012CCA
:1018700024D0052C29D9142C2ED802238DF805301C
:101880000A20FFF703FE9DF805309B0143F0070394
:101890008DF80530184B5868196801AB0222497D54
:1018A0000078FEF7A1FE044618BB134B08229A727B
:1018B000187301221A75FFF733FECFE700238DF866
:1018C00005300520FFF7E2FDDDE701238DF8053047
:1018D0000520FFF7DBFDD6E703238DF80530142044
:1018E000FFF7D4FDCFE74FF0FF34B7E74FF0FF34F9
:1018F000B4E74FF0FF34B1E70000002010B582B02C
:10190000254B9B7A002B3ED00446234B93F8243082
:10191000002B3BD1204B1B7D33B1431E9BB2272BA9
:101920000AD90020FFF77CFF032C09D9B4F57A7F90
:1019300007D94FF47A7404E0FFF772FF00241FE028
:1019400004244FF47A7090FBF4F4013C8DF80740C6
:10195000114B586819680DF1070301224978007886
:10196000FEF742FE0446A0B99DF80700431C4FF461
:101970007A7090FBF3F0084BD8814008FFF786FDA2
:10198000204602B010BD4FF0FF34F9E74FF0FF34AE
:10199000F6E74FF0FF34F3E70000002030B583B0E6
:1019A000044610F0700F56D001238DF80730364BE7
:1019B000586819680DF107030122497D0078FEF788
:1019C00013FE002850D19DF8073003F0BF032E4AC4
:1019D000137300238DF8073014F0400F02D1042355
:1019E0008DF8073014F0200F05D19DF8073043F033
:1019F00002038DF8073014F0100F05D19DF8073061
:101A000043F001038DF8073014F0080F05D19DF85D
:101A1000073043F038038DF807301B4B58681968BE
:101A20000DF107030122897D0078FEF7DDFD0546F3
:101A300000BBB4F1080318BF0123002C08BF00232A
:101A4000F3B9114B9C7200221A75322003F042FF49
:101A5000284603B030BD18B100238DF80730A6E743
:101A600040238DF80730A2E7074B00229A724FF00F
:101A7000FF35EDE7044B00229A724FF0FF35E7E7A0
:101A80000020FFF793FEDCE70000002010B582B0D5
:101A900080238DF80030384B586819686B46012256
:101AA000497D0078FEF7A0FD00284DD1642003F0A9
:101AB00011FF00238DF800302F4B586819686B46D2
:101AC0000122497D0078FEF78FFD00283FD12A4B87
:101AD0000022DA74FF21997219725972D9724FF685
:101AE000FF70D881197499740121197383F8221039
:101AF00083F823205A751A75C3F81620C3F81A20E4
:101B0000C3F81E2083F8242083F82520DA844FF4BC
:101B1000FA60FFF703FCE8B90220FFF76DFCE0B9BB
:101B20002A20FFF7B3FCD8B93220FFF7E7FED0B97F
:101B3000FFF7F6FCD0B9FFF785FD0446C8B9FFF7FB
:101B40002DFF204602B010BD4FF0FF34F9E74FF0F3
:101B5000FF34F6E74FF0FF34F3E74FF0FF34F0E7E0
:101B60004FF0FF34EDE74FF0FF34EAE74FF0FF347A
:101B7000E7E74FF0FF34E4E7000000203AB370B528
:101B800082B00C461646194B9B7A1BB3030A8DF89C
:101B90000430C0B28DF805000844144B5D686B89B1
:101BA00098421ADC114B196801AB0222C97E2878D1
:101BB000FEF71AFDA0B90D4B586819683346224646
:101BC000097E0078FEF710FD68B902B070BD4FF0D5
:101BD000FF3070474FF0FF30F7E74FF0FF30F4E78A
:101BE0004FF0FF30F1E74FF0FF30EEE7000000204C
:101BF00010B582B01C46124B93F82530B3B9C1B171
:101C0000130A8DF804308DF805200D4B58681968BB
:101C100001AB0222497F0078FEF7E6FC60B9084B71
:101C2000012283F82520DC8402B010BD4FF0FF3084
:101C3000FAE74FF0FF30F7E74FF0FF30F4E700BF6F
:101C400000000020234B93F8243083423CD030B571
:101C500083B018B31F4B93F82530002B36D00020EB
:101C6000FFF714FA0020FFF7EDFC1A4DE88CFFF7A0
:101C700045FE00248DF8074068680DF10703012236
:101C800023210078FEF7B0FC012085F82400FFF73F
:101C9000FDF9FFF747FA204603B030BD0020FFF7FB
:101CA000F5F90C4D2B7C8DF8073068680DF10703B2
:101CB000012223210078FEF797FC002485F82440B8
:101CC000FFF730FA2046E7E7002070474FF0FF307B
:101CD000E2E700BF0000002090F90030002B01DD9A
:101CE000002070470FDB90F90130002B01DD01204F
:101CF00070470ADB90F90230002B08DC01DB07207B
:101D00007047062070470420704705207047022066
:101D1000704710B5044603F0CBFC2060002010BDD6
:101D200008B5134601220079FEF786FC08BD08B508
:101D3000134601220079FEF757FC08BD08B503F0F1
:101D4000C9FD08BD0000000030B585B004464379E8
:101D5000002B40F0AF8003681B690DF10F02432197
:101D600098479DF80F301B02638123681B690DF1B2
:101D70000F024421204698479DF80F306289134393
:101D8000638123681B690DF10F02452120469847A6
:101D90009DF80F301B02A38123681B690DF10F0210
:101DA0004621204698479DF80F30A2891343A3810E
:101DB00023681B690DF10F024721204698479DF8C3
:101DC0000F301B02E38123681B690DF10F024821CC
:101DD000204698479DF80F30E2891343E38123683A
:101DE0001B690DF10F023B21204698479DF80F30EB
:101DF0001B02238223681B690DF10F023C21204640
:101E000098479DF80F30228A1343238223681B6969
:101E10000DF10F023D21204698479DF80F301B021F
:101E2000638223681B690DF10F023E21204698470B
:101E30009DF80F30628A1343638223681B690DF19A
:101E40000F023F21204698479DF80F301B02A382C6
:101E500023681B690DF10F024021204698479DF829
:101E60000F30A28A1343A38223681B690DF10F026E
:101E70004121204698479DF80F502D0223681B6989
:101E80000DF10F024221204698479DF80F302B4359
:101E900007EE103AB8EEC77B9FED236B27EE067B6B
:101EA00084ED107B204650F8383B5B699847002052
:101EB00005B030BD00F138052846FEF7E9FB0DF10D
:101EC0000E0301931C4B00932B461C4A04F1100196
:101ED00004F10A00FEF7F2FF20BB184AD2ED007AA7
:101EE000B8EEE76B9FED125B26EE056B84ED066B9B
:101EF000D2ED017AB8EEE76B26EE056B84ED086B48
:101F0000D2ED027AB8EEE76B26EE056B84ED0A6B34
:101F100092ED037AB8EEC77B27EE057B84ED0C7B50
:101F2000C0B2C5E7FF20C3E7000000000000F03E9C
:101F3000000000000000103E640200206802002043
:101F400038B50546FFF7C8FE0446E81CFFF7C4FE97
:101F500044EAC00424B2A81DFFF7BEFE44EA801084
:101F600080B238BD30B585B0044603689B680A204E
:101F700098476379002B48D100238DF80F302368F0
:101F8000DB680DF10F026B2120469847002862D1D3
:101F900018238DF80F302368DB680DF10F021B2129
:101FA00020469847002859D118238DF80F30236810
:101FB000DB680DF10F021C2120469847002850D104
:101FC00001238DF80F302368DB680DF10F021A2111
:101FD00020469847002847D1E2884FF47A7393FB54
:101FE000F2F3013B8DF80F302368DB680DF10F022F
:101FF0001921204698470546002838D123689B6858
:102000000A209847284605B030BD01A8FFF73EFDDD
:102010000546E8B97820FFF7C1FC7820FFF780FA81
:10202000E088FFF76BFC02A8FEF732FBFEF754FBDB
:102030001048FFF785FFFEF75BFB40F27310FEF7D9
:1020400031FE2089FEF7F6FB0120FFF7FBFDD9E703
:102050004FF0FF35D6E74FF0FF35D3E76FF00105BE
:10206000D0E76FF00205CDE76FF00305CAE76FF028
:102070000405C7E74400002038B505460C46482053
:1020800004F054F905714471034A02604FF47A7206
:10209000C280C822028138BD2C0000200000000050
:1020A00038B52DED0E8B0446006803685B689847D1
:1020B000002847D10546236893ED06BB93ED088BB6
:1020C00093ED0A9B93ED0CABB8EE00EB28EE0EEB14
:1020D0003BEE0BDB2DEE090B0EEE0A0B06F034FF88
:1020E0009FED1BCB20EE0C0B84ED020B39EE097B30
:1020F0002DEE080B27EE091B1EEE081BB7EE006B3A
:1021000031EE061B07EE0A0B06F074FF20EE0C0BF7
:1021100084ED040B2BEE0A0B08EE090B28EE081BCE
:102120000BEE0B1B09EE491B0AEE4A1B30EE000BAF
:1021300006F060FF20EE0CCB84ED06CB2846BDEC0C
:102140000E8B38BD4FF0FF35F8E700BFAFF30080CE
:102150006666666666A64C4010B5202004F0E6F878
:10216000044601216820FFF787FF2060014B636070
:10217000204610BD5000002000B583B0FFF7ECFFF3
:102180000190006803681B68984718E0022300224A
:1021900001A90E48006802F00FFE019BD3E902235B
:1021A0000B4804F0CBFF019BD3E90623094804F058
:1021B000C5FF019BD3E90423074804F0BFFF019842
:1021C00043681B6898470028F9D1DFE778020020B0
:1021D0008CA3000898A30008A4A3000800B583B04E
:1021E000074B1B6801930923009300234FF480726F
:1021F0000449054803F0D2F903B05DF804FB00BFC1
:102200008C4B0020BCA300087921000808B50022EF
:102210002021012002F0A6FD014B186008BD00BF7F
:102220007802002010B514464FF47A7392B2024837
:1022300002F020FB204610BDE04B002030B5B9B0C5
:10224000342200212BA804F02FFB0024269427948D
:10225000289429942A949022214602A804F024FB71
:102260001F4B1A6C42F080521A641B6C03F08053AF
:102270000093009B1B4B1A6842F440421A601B6893
:1022800003F440430193019B02252B9501232E93D8
:1022900010232F933195329408233393D82334930A
:1022A000359536952BA800F07DFA01F085FA0F23BD
:1022B0002693279528944FF4A05329934FF48053E5
:1022C0002A93072126A800F0DFFC4FF40133029384
:1022D00017941E9402A800F0D1FD39B030BD00BFA4
:1022E000003802400070004008B5BFF34F8FBFF3C5
:1022F0006F8F234B0021C3F85012BFF34F8FBFF3F2
:102300006F8F5A6942F400325A61BFF34F8FBFF3A7
:102310006F8FC3F88410BFF34F8FD3F88040C4F39E
:102320004E3000E01846C4F3C90243F6E07303EAF6
:10233000401343EA82731249C1F860321346013AEE
:10234000002BF2D1431E0028ECD1BFF34F8F4B6915
:1023500043F480334B61BFF34F8FBFF36F8F01F0B6
:1023600069FAFFF76BFF00F01BF800F079F800F056
:10237000F3F803F099FE00F05FF803F0B3FEFEE718
:1023800000ED00E008B50268034B9A4200D008BD9A
:1023900001F05CFAFBE700BF00000140704700005D
:1023A00030B58BB0002405940694079408940994E2
:1023B0001C4B1A6B42F080021A631A6B02F0800207
:1023C0000192019A1A6B42F008021A631A6B02F02A
:1023D00008020292029A1A6B42F001021A631A6B07
:1023E00002F001020392039A1A6B42F004021A638C
:1023F0001B6B03F004030493049B0B4D22464FF424
:102400000061284601F0D2F94FF4006305930123DF
:1024100006930794089405A9284601F031F80BB0FB
:1024200030BD00BF00380240000C024008B501205A
:1024300003F0E8FEFBE7000008B5064A0021064865
:1024400003F074FE054B1860FFF7C8FEFFF7DEFED1
:1024500008BD00BFD8A300082D240008904B002021
:1024600008B51248124B0360124B4360002383608F
:102470000122C260036143618361C361036201F0B1
:1024800063FB50B90021094801F086FD40B90021E5
:10249000064801F0AFFD30B908BDFFF77FFFF1E757
:1024A000FFF77CFFF3E7FFF779FFF5E7944B002098
:1024B000006000406847402010B588B000230393B7
:1024C00004930593069307930268144B9A4201D034
:1024D00008B010BD124C236B43F008032363236B39
:1024E00003F008030193019B4FF44053039312231D
:1024F000049301230593032306930423079303A95D
:10250000084800F0BDFF236C43F080732364236C04
:1025100003F080730293029BDAE700BF0060004083
:1025200000380240000C024008B50268074B9A428E
:1025300000D008BD064A136C23F0807313644FF477
:102540004051044801F08CF8F3E700BF0060004000
:1025500000380240000C024008B50B480B4B0360EA
:102560004FF4E133436000238360C36003610C22B6
:1025700042618361C3610362436202F01EFA00B9E3
:1025800008BDFFF70BFFFBE7E04B002000500040C9
:10259000F0B589B000230393049305930693079342
:1025A00002681E4B9A4201D009B0F0BD03F5F43326
:1025B0001A6C42F480121A641A6C02F480120092AF
:1025C000009A1A6B42F004021A631A6B02F00402BA
:1025D0000192019A1A6B42F008021A631B6B03F016
:1025E00008030293029B4FF480530393022704973E
:1025F00000260596032506950824079403A9084894
:1026000000F03EFF04230393049705960695079474
:1026100003A9044800F034FFC6E700BF00500040A3
:1026200000080240000C02407047FEE7FEE7FEE7AC
:10263000FEE7704708B5024801F024FD08BD00BF61
:10264000604C002000B583B00D4B1A6C42F08052F4
:102650001A641A6C02F080520092009A5A6C42F48A
:1026600080425A645B6C03F480430193019B002217
:102670000F216FF0010000F055F803B05DF804FB86
:102680000038024000B589B001460022192000F050
:1026900049F8192000F078F8154B5A6C42F0010205
:1026A0005A645B6C03F001030193019B02A903A828
:1026B00000F0C6FB00F0B4FB43000E48A0FB032370
:1026C0009B0C013B0C480D4A026040F2E732C260AD
:1026D000436000230361836001F028FE18B10120EC
:1026E00009B05DF804FB044801F0B2FCF8E700BF54
:1026F0000038024083DE1B43604C00200000014094
:102700000649CB6823F4E0631B041B0C000200F4B1
:10271000E0600343024A1A43CA60704700ED00E0DC
:102720000000FA0530B4154BDB68C3F30223C3F194
:102730000704042C28BF04241D1D062D14D9033BB7
:102740004FF0FF3505FA04F421EA0401994005FA37
:1027500003F322EA03031943002807DB0901C9B286
:10276000074B195430BC70470023E9E700F00F0015
:102770000901C9B2034B1954F4E700BF00ED00E0B2
:1027800000E400E014ED00E0002807DB00F01F0289
:10279000400901239340024A42F82030704700BFAD
:1027A00000E100E0002800F0068270B582B0044627
:1027B000036813F0010F29D0A74B9B6803F00C03AB
:1027C000042B1AD0A44B9B6803F00C03082B0FD0EA
:1027D0006368B3F5803F40D0002B54D19E4B1A68FC
:1027E00022F480321A601A6822F480221A6039E0DA
:1027F000994B5B6813F4800FEAD0974B1B6813F476
:10280000003F03D06368002B00F0D781236813F0EA
:10281000020F74D0904B9B6813F00C0F5ED08E4B60
:102820009B6803F00C03082B53D0E368002B00F0E7
:102830008980894A136843F00103136001F012F89C
:102840000546854B1B6813F0020F72D101F00AF8A0
:10285000401B0228F5D90320B4E17F4A136843F4F2
:102860008033136063682BB300F0FCFF05467A4B9E
:102870001B6813F4003FC9D100F0F4FF401B64282B
:10288000F5D903209EE1B3F5A02F09D0724B1A6849
:1028900022F480321A601A6822F480221A60E1E77A
:1028A0006D4B1A6842F480221A601A6842F4803232
:1028B0001A60D7E700F0D6FF0546674B1B6813F494
:1028C000003FA3D000F0CEFF401B6428F5D90320C1
:1028D00078E1614B5B6813F4800FA6D15E4B1B68F7
:1028E00013F0020F03D0E368012B40F068815A4ACD
:1028F000136823F0F803216943EAC10313602368D6
:1029000013F0080F46D0636983B3534A536F43F003
:102910000103536700F0A6FF05464F4B5B6F13F0B2
:10292000020F37D100F09EFF401B0228F5D903208B
:1029300048E1494A136823F0F803216943EAC103D7
:102940001360DCE7444A136823F00103136000F0CE
:1029500089FF0546404B1B6813F0020FCFD000F0F3
:1029600081FF401B0228F5D903202BE13A4A536F1F
:1029700023F00103536700F075FF0546364B5B6F8C
:1029800013F0020F06D000F06DFF401B0228F5D9AE
:10299000032017E1236813F0040F7DD02E4B1B6C2E
:1029A00013F0805F0BD12C4B1A6C42F080521A64EA
:1029B0001B6C03F080530193019B012500E000256F
:1029C000264B1B6813F4807F0ED0A368012B1FD009
:1029D000002B35D1204B1A6F22F001021A671A6FB3
:1029E00022F004021A6718E01C4A136843F480734B
:1029F000136000F037FF0646184B1B6813F4807F06
:102A0000E3D100F02FFF801B6428F5D90320D9E023
:102A1000114A136F43F001031367A36853B300F027
:102A200021FF06460C4B1B6F13F0020F33D100F051
:102A300019FF801B41F288339842F3D90320C1E08B
:102A4000052B0DD0044B1A6F22F001021A671A6F82
:102A500022F004021A67E0E70038024000700040EC
:102A6000604B1A6F42F004021A671A6F42F00102BB
:102A70001A67D2E700F0F6FE06465A4B1B6F13F0BA
:102A8000020F08D000F0EEFE801B41F2883398421E
:102A9000F3D9032096E0FDB9A369002B00F09180E3
:102AA000504A926802F00C02082A59D0022B19D021
:102AB0004C4A136823F08073136000F0D3FE044681
:102AC000484B1B6813F0007F48D000F0CBFE001B82
:102AD0000228F5D9032075E0424A136C23F0805395
:102AE0001364D9E73F4A136823F08073136000F042
:102AF000B9FE05463B4B1B6813F0007F06D000F083
:102B0000B1FE401B0228F5D903205BE0E369226A8D
:102B10001343626A43EA8213A26A5208013A43EA03
:102B20000243E26A43EA0263226B43EA02732D4ADC
:102B30005360136843F08073136000F093FE044603
:102B4000284B1B6813F0007F06D100F08BFE001BA2
:102B50000228F5D9032035E0002033E0002031E0E1
:102B6000204A5268012B2FD002F48003E1698B4286
:102B70002CD102F03F03216A8B4229D1616A47F6CA
:102B8000C0731340B3EB811F24D102F44031A36A18
:102B90005B08013BB1EB034F1ED102F07063E16AA9
:102BA000B3EB016F1AD102F0E042236BB2EB037F6B
:102BB00016D1002006E001207047012002E001202C
:102BC00000E0002002B070BD0120FBE70120F9E722
:102BD0000120F7E70120F5E70120F3E70120F1E705
:102BE0000120EFE700380240F8B5244B9B6803F062
:102BF0000C03042B3DD0082B3DD1204B5A6802F02A
:102C00003F025B6813F4800F12D01C4B5968C1F36C
:102C1000881100231A48A1FB0001FDF769FB174B3F
:102C20005B68C3F3014301335B00B0FBF3F023E0C7
:102C3000124B5B68C3F388135C010025E41A65F14D
:102C40000005AE0146EA9466A701381B66EB050154
:102C5000CC0044EA5074C500E81844F100018B022E
:102C600043EA90538402204619460023FDF740FBB7
:102C7000D5E7034800E00348F8BD00BF0038024034
:102C800040787D010024F400002800F0A08070B599
:102C90000D460446524B1B6803F00F038B420BD2C8
:102CA0004F4A136823F00F030B431360136803F0BC
:102CB0000F038B4240F08D80236813F0020F17D072
:102CC00013F0040F04D0474A936843F4E053936031
:102CD000236813F0080F04D0424A936843F460431A
:102CE0009360404A936823F0F003A1680B4393601C
:102CF000236813F0010F31D06368012B20D0022B21
:102D000025D0384A126812F0020F64D035498A681B
:102D100022F0030213438B6000F0A4FD0646314B02
:102D20009B6803F00C036268B3EB820F16D000F0CF
:102D300099FD801B41F288339842F0D9032045E089
:102D4000284A126812F4003FE0D101203EE0254AF3
:102D5000126812F0007FD9D1012037E0204B1B68A8
:102D600003F00F03AB420AD91D4A136823F00F0387
:102D70002B431360136803F00F03AB422DD123687C
:102D800013F0040F06D0174A936823F4E053E16868
:102D90000B439360236813F0080F07D0114A936820
:102DA00023F46043216943EAC1039360FFF71CFFEA
:102DB0000C4B9B68C3F303130B4AD35CD8400B4BFB
:102DC00018600B4B1868FFF75DFC002070BD0120F8
:102DD00070470120FAE70120F8E70120F6E700BF7D
:102DE000003C024000380240FCA300085C000020C8
:102DF00058000020014B1868704700BF5C0000209D
:102E000008B5FFF7F7FF044B9B68C3F38223034A1F
:102E1000D35CD84008BD00BF003802400CA40008B5
:102E200008B5FFF7E7FF044B9B68C3F34233034A3F
:102E3000D35CD84008BD00BF003802400CA4000895
:102E40000F2303600B4B9A6802F0030242609A68FA
:102E500002F0F00282609A6802F4E052C2609B685D
:102E6000DB0803F4E0530361034B1B6803F00F031B
:102E70000B60704700380240003C0240F0B583B060
:102E80000446066816F001060DD0B54B9A6822F488
:102E900000029A609A68416B0A439A60436B002B68
:102EA00000F055810026256815F4002511D0AC4AA4
:102EB000D2F88C3023F44013E16B0B43C2F88C3012
:102EC000E36BB3F5801F00F04481002B00F04381D9
:102ED0000025236813F4801F0FD0A14AD2F88C304C
:102EE00023F44003216C0B43C2F88C30236CB3F500
:102EF000800F00F0328103B90125236813F0807F31
:102F000000D0012613F0200F40F02C81236813F02D
:102F1000100F0CD0924BD3F88C2022F08072C3F8A3
:102F20008C20D3F88C20A16B0A43C3F88C20236833
:102F300013F4804F08D08A4AD2F8903023F44033FB
:102F4000616E0B43C2F89030236813F4004F08D031
:102F5000834AD2F8903023F44023A16E0B43C2F889
:102F60009030236813F4803F08D07D4AD2F8903027
:102F700023F44013E16E0B43C2F89030236813F43E
:102F8000003F08D0764AD2F8903023F44003216FF6
:102F90000B43C2F89030236813F0400F08D0704AFA
:102FA000D2F8903023F00303616C0B43C2F89030E9
:102FB000236813F0800F08D0694AD2F8903023F0CC
:102FC0000C03A16C0B43C2F89030236813F4807F8C
:102FD00008D0634AD2F8903023F03003E16C0B4301
:102FE000C2F89030236813F4007F08D05C4AD2F80E
:102FF000903023F0C003216D0B43C2F8903023685A
:1030000013F4806F08D0564AD2F8903023F44073FE
:10301000616D0B43C2F89030236813F4006F08D041
:103020004F4AD2F8903023F44063A16D0B43C2F8AD
:103030009030236813F4805F08D0494AD2F890306A
:1030400023F44053E16D0B43C2F89030236813F42E
:10305000005F08D0424AD2F8903023F44043216EFA
:103060000B43C2F89030236813F4800F08D03C4A19
:10307000D2F8903023F08063A16F0B43C2F89030F8
:10308000236813F4001F0DD0354AD2F8903023F096
:103090000063E16F0B43C2F89030E36FB3F1006F50
:1030A00000F0C680236813F0080F00D0012513F448
:1030B000802F08D02A4AD2F8903023F04073616FF5
:1030C0000B43C2F89030236813F4000F09D0244A50
:1030D000D2F8903023F08053D4F880100B43C2F81C
:1030E0009030236813F0806F09D01D4AD2F89030D9
:1030F00023F00053D4F884100B43C2F890302368B7
:1031000013F0006F09D0164AD2F88C3023F0007308
:10311000D4F888100B43C2F88C30236813F0805F1A
:1031200009D00F4AD2F88C3023F08063D4F88C1089
:103130000B43C2F88C30002E7CD12368B3F1007FA2
:1031400078D0012D00F00981002003B0F0BD0126E8
:10315000A9E60126B9E60125BBE60126CBE600BFBC
:1031600000380240B74B1A6C42F080521A641B6C54
:1031700003F080530193019BB34A136843F48073B7
:10318000136000F06FFB0746AF4B1B6813F4807FA2
:1031900006D100F067FBC01B6428F5D90320D4E7F3
:1031A000A84B1B6F13F4407315D0226B02F44072CE
:1031B0009A4210D0A34B1A6F22F44072196F41F457
:1031C00080311967196F21F4803119671A671B6FF5
:1031D00013F0010F12D1236B03F44072B2F5407F5C
:1031E0001DD0984A936823F4F813936095490B6FA8
:1031F000226BC2F30B0213430B6787E600F032FB2E
:103200000746904B1B6F13F0020FE4D100F02AFB2E
:10321000C01B41F288339842F3D9032095E78948CF
:10322000826822F4F812894919400A438260DDE776
:10323000012537E7834A136823F08063136000F0A9
:1032400011FB06467F4B1B6813F0006F06D000F0A1
:1032500009FB801B6428F5D9032076E7236813F067
:10326000010F13D0636B8BB9764AD2F88430D2F851
:103270008410606803F4403343EA801301F0706106
:103280000B43A16843EA0173C2F88430236813F446
:10329000002F03D0E26BB2F5801F06D013F4801F1D
:1032A0001ED0236CB3F5800F1AD1664AD2F8843051
:1032B000D2F88410606803F4403343EA8013E06876
:1032C00043EA006301F0E0410B43C2F88430D2F8D6
:1032D0008C3023F01F03616A01390B43C2F88C3034
:1032E000236813F0807F11D0564AD2F88400D2F8B8
:1032F0008410666823691B0443EA861300F070603B
:10330000034301F0E0410B43C2F88430236813F01B
:10331000007F0DD0626823691B0443EA8213E268D0
:1033200043EA0263A26843EA0273464AC2F8843061
:10333000444A136843F08063136000F093FA064632
:10334000404B1B6813F0006F7FF4FBAE00F08AFA6D
:10335000801B6428F4D90320F7E63A4A136823F067
:103360008053136000F07EFA0546364B1B6813F05D
:10337000005F06D000F076FA401B6428F5D90320E0
:10338000E3E6236813F4002F01D0E26B22B113F4BB
:10339000801F1DD0236CDBB92A4AD2F88830D2F8BE
:1033A0008810606903F4403343EA8013A06943EA5C
:1033B000006301F0E0410B43C2F88830D2F88C3052
:1033C00023F4F853A16A013943EA0123C2F88C308F
:1033D000236813F4001F03D0E36FB3F1006F37D0FD
:1033E000236813F0080F19D0164AD2F88810D2F8C3
:1033F0008830606903F4403343EA801301F0706160
:103400000B43E16943EA0173C2F88830D2F88C308B
:1034100023F44033E16A0B43C2F88C30094A136845
:1034200043F08053136000F01DFA0446054B1B68FF
:1034300013F0005F1FD100F015FA001B6428F5D9C6
:10344000032082E60038024000700040FFFCFF0FBE
:103450000A4AD2F88800D2F888106569236A1B04EA
:1034600043EA851300F07060034301F0E0410B4331
:10347000C2F88830B4E7002067E600BF0038024099
:1034800000230F2B00F2E380F0B583B039E009226E
:1034900000E00022B2403A4302346D4E46F8242048
:1034A0006C4A1468EA4324EA05064F6817F4803F23
:1034B00001D045EA0406674C2660646802EA040607
:1034C0004F6817F4003F01D045EA0406614C66607E
:1034D000A46802EA04064F6817F4801F01D045EA89
:1034E00004065C4CA660E46822404E6816F4001F97
:1034F00001D045EA0402574CE26001330F2B00F281
:10350000A48001229A400C6804EA020532EA04040D
:10351000F3D14C68661E112C18BF012E01D9122C54
:1035200012D186685F000324BC4026EA0406CC68FA
:10353000BC4034438460466826EA02064C68C4F303
:1035400000129A4032434260C7685E000324B440D0
:10355000E24327EA04078C68B4403C43C4604C68EB
:10356000122C18BF022C13D1DF08083750F827E0BF
:1035700003F007044FEA840C0F2404FA0CF42EEA3B
:10358000040E0C6904FA0CF444EA0E0440F82740D7
:10359000046814404A6802F00302B2402243026009
:1035A0004A6812F0805FA8D02B4A546C44F48044DF
:1035B0005464526C02F480420192019A9C08A61C49
:1035C000234A52F8267003F0030296000F22B240FD
:1035D00027EA0207214A90423FF45BAF02F580627E
:1035E000904222D002F58062904220D002F58062A3
:1035F00090421ED002F5806290421CD002F580629B
:1036000090421AD002F58062904218D002F5806292
:10361000904216D002F58062904214D002F580628A
:1036200090423FF434AF0A2234E7012232E702220B
:1036300030E703222EE704222CE705222AE70622A0
:1036400028E7072226E7082224E703B0F0BD7047E9
:1036500000380140003C01400038024000000240B8
:1036600000230F2B00F29B80F0B52DE0092600E02F
:10367000002606FA04F4AC4275D005685C00032607
:1036800006FA04F425EA0405056023FA06F5083570
:1036900050F8256003F007074FEA870C0F2707FA59
:1036A0000CF726EA070640F82560C56825EA0405F8
:1036B000C560456825EA02024260826822EA040485
:1036C000846001330F2B69D801229A4002EA010776
:1036D00032EA0104F5D14FEA930C0CF10205304CAB
:1036E00054F8255003F00304A4000F2606FA04FE44
:1036F0000EEA05052B4EB042BAD006F58066B04200
:1037000021D006F58066B0421FD006F58066B04233
:103710001DD006F58066B0421BD006F58066B0422B
:1037200019D006F58066B04217D006F58066B04223
:1037300015D006F58066B04213D006F58066B0421B
:1037400094D00A2695E7012693E7022691E70326FF
:103750008FE704268DE705268BE7062689E70726EF
:1037600087E7082685E7104C256825EA07052560C8
:10377000656825EA07056560A56825EA0705A5606F
:10378000E56825EA0707E760054D0CF1020455F8E6
:10379000246026EA0E0645F824606EE7F0BD704707
:1037A0000038014000000240003C01400AB1816144
:1037B000704709048161704710B582B01B4B1A6CC9
:1037C00042F080521A641B6C03F080530193019BFA
:1037D000174A136843F48033136000F043F804463B
:1037E000134B5B6813F4803F08D100F03BF8001BDB
:1037F000B0F57A7FF4D9032002B010BD0C4A1368EB
:1038000043F40033136000F02DF80446084B5B6866
:1038100013F4003F07D100F025F8001BB0F57A7FC4
:10382000F4D90320E8E70020E6E700BF00380240B3
:103830000070004008B50320FEF762FF0020FEF78D
:1038400021FFFEF7FFFE002008BD0000034A1168BB
:10385000034B1B780B441360704700BFA04C002043
:1038600054000020014B1868704700BFA04C002096
:1038700003689A6912F0020F01D000229A6203686D
:103880009A6912F0010F03D19A6942F001029A611C
:10389000704770B4039E05686868740D04F4806412
:1038A00044F07F7444F4583444F47F7444F00304C7
:1038B00020EA0400C1F3090141EA024119433143FE
:1038C0000143696070BC7047F8B505460E4617465F
:1038D00003689B6913F0100F01D10020F8BD2B681D
:1038E0009C6914F0200F17D1B6F1FF3FF7D0FFF716
:1038F000B9FFC01BB04201D8002EF0D16B6C43F071
:1039000020036B64202385F84130002385F8423082
:1039100085F840300120E1E71022DA612B6820248D
:10392000DC612846FFF7A4FF2A68536823F0FF7381
:1039300023F48B3323F4FF7323F0010353606B6C88
:1039400043F004036B6485F84140002385F842305E
:1039500085F840300120C1E770B504460D46164693
:1039600023689B6913F0020F1DD132462946204679
:10397000FFF7AAFFC8B9B5F1FF3FF1D0FFF772FF1B
:10398000801BA84201D8002DEAD1636C43F02003CC
:103990006364202384F84130002384F8423084F8A3
:1039A0004030012000E0002070BD0120FCE72DE93F
:1039B000F0410646884617461D463468A46938EA31
:1039C00004030CBF01240024BC4218D1B5F1FF3F11
:1039D000F3D0FFF747FF069BC01AA84201D8002D7D
:1039E000EBD1736C43F020037364202386F84130DD
:1039F000002386F8423086F84030012000E00020A5
:103A0000BDE8F0812DE9F04182B0044690461D46A4
:103A1000089E099F194B00934FF08073EAB2FFF79D
:103A200038FF3A4631462046FFF796FFF8B9012D98
:103A30000ED123685FFA88F29A620097334600221B
:103A400080212046FFF7B3FFA8B902B0BDE8F0819E
:103A500023684FEA18229A623A4631462046FFF719
:103A60007BFF30B923685FFA88F29A62E5E70120AC
:103A7000EBE70120E9E70120E7E700BF0020008035
:103A80002DE9F04182B0044690461D46089E099FEC
:103A9000184B00930023EAB2FFF7FBFE3A4631468B
:103AA0002046FFF759FFF8B9012D0ED123685FFAC0
:103AB00088F29A6200973346002240212046FFF7A1
:103AC00076FFA8B902B0BDE8F08123684FEA18225A
:103AD0009A623A4631462046FFF73EFF30B92368E6
:103AE0005FFA88F29A62E5E70120EBE70120E9E757
:103AF0000120E7E70020008070B505460C46164619
:103B00002B689B6913F0200F1AD1324621462846B4
:103B1000FFF7DAFEB0B9FFF7A5FE801BA04201D87F
:103B2000002CEDD16B6C43F020036B64202385F8EF
:103B30004130002385F8423085F84030012070BDC7
:103B40000020FCE70120FAE7002857D010B5044612
:103B500090F84130002B41D0242384F84130226872
:103B6000136823F0010313606368226823F0706315
:103B700013612268936823F400439360E368012B88
:103B800031D0A368226843F404439360E368022BB6
:103B90002FD0226851681A4B0B4353602268D368B8
:103BA00023F40043D360236962691343A169226847
:103BB00043EA0123D360E369216A22680B4313605F
:103BC0002268136843F0010313600020606420231F
:103BD00084F84130206384F8420010BD80F8403002
:103BE000FEF76AFCB8E7A368226843F400439360D9
:103BF000CCE723684FF400625A60CAE7012070479F
:103C000000800002A8B110B50446242380F841309A
:103C10000268136823F001031360FEF785FC00209F
:103C2000606484F84100206384F8420084F8400016
:103C300010BD012070472DE9F04F83B00D46BDF84F
:103C400034A00E9F90F84110C9B2202940F0BE80E8
:103C5000044690469946BAFA8AF35B090C9A002A00
:103C600008BF0123B3B990F84030012B00F0B280B7
:103C70004FF0010B80F840B0FFF7F4FD06460090CE
:103C800019235A464FF400412046FFF790FE30B109
:103C900001209CE04FF400734364012097E021234E
:103CA00084F84130402384F84230002363640C9A46
:103CB0006262A4F82AA06363019600974B464246CD
:103CC00029462046FFF79EFE70B9638D9BB2FF2BFD
:103CD0000FD9FF222285002300934FF080732946DD
:103CE0002046FFF7D6FD21E0002384F840305846F7
:103CF0006DE0628D92B22285002300934FF0007335
:103D0000D2B229462046FFF7C4FD0FE0628D92B281
:103D10002285002300934FF00073D2B2294620463B
:103D2000FFF7B7FD638D9BB2002B33D03246394687
:103D30002046FFF711FE00284ED1626A23681278F0
:103D40009A62636A01336362638D9BB2013B9BB2EB
:103D50006385238D013B9BB22385628D92B2002A3D
:103D6000E0D0002BDED100963B4600228021204689
:103D7000FFF71DFE90BB638D9BB2FF2BC6D9FF22C0
:103D80002285002300934FF0807329462046FFF7D9
:103D900080FDC7E7324639462046FFF7ADFEF8B949
:103DA00023682022DA6121684B6823F0FF7323F433
:103DB0008B3323F4FF7323F001034B6084F841201D
:103DC000002384F8423084F8403000E0022003B041
:103DD000BDE8F08F0220FAE70120F8E70120F6E7BE
:103DE0000120F4E72DE9F04F83B00D46BDF834A073
:103DF0000E9F90F84110C9B2202940F0BF800446C0
:103E000090469946BAFA8AF35B090C9A002A08BFD1
:103E10000123B3B990F84030012B00F0B3804FF08C
:103E2000010B80F840B0FFF71DFD064600901923F6
:103E30005A464FF400412046FFF7B9FD30B101204A
:103E40009DE04FF400734364012098E0222384F83E
:103E50004130402384F84230002363640C9A62624C
:103E6000A4F82AA06363019600974B464246294670
:103E70002046FFF705FE70B9638D9BB2FF2B0FD96B
:103E8000FF222285434B00934FF080732946204642
:103E9000FFF7FFFC21E0002384F8403058466EE035
:103EA000628D92B222853B4B00934FF00073D2B2E9
:103EB00029462046FFF7EDFC0FE0628D92B2228585
:103EC000002300934FF00073D2B229462046FFF73B
:103ED000E0FC638D9BB2002B34D000963B46002261
:103EE00004212046FFF763FD00284DD123685A6A5C
:103EF000636A1A70636A01336362228D013A92B277
:103F00002285638D9BB2013B9BB26385638D9BB21F
:103F1000002BDED0002ADCD100963B4680212046D3
:103F2000FFF745FD90BB638D9BB2FF2BC5D9FF22E8
:103F30002285002300934FF0807329462046FFF727
:103F4000A8FCC6E7324639462046FFF7D5FDF8B94A
:103F500023682022DA6121684B6823F0FF7323F481
:103F60008B3323F4FF7323F001034B6084F841206B
:103F7000002384F8423084F8403000E0022003B08F
:103F8000BDE8F08F0220FAE70120F8E70120F6E70C
:103F90000120F4E70024008090F84130DBB2202BB0
:103FA00024D190F84030012B22D0012380F84030FA
:103FB000242380F841300268136823F00103136062
:103FC0000268136823F4805313600268136819436E
:103FD00011600268136843F001031360202380F826
:103FE0004130002380F84030184670470220704767
:103FF0000220704790F84130DBB2202B22D190F89C
:104000004030012B20D0012380F84030242380F859
:1040100041300268136823F00103136002681368DB
:1040200023F4706343EA012111600268136843F0CE
:1040300001031360202380F84130002380F84030D2
:1040400018467047022070470220704770470000F2
:104050000268D36843F00103D36002689168064B9D
:104060000B40062B18BFB3F5803F03D0136843F015
:10407000010313600020704707000100704770477C
:104080007047704710B5044603681A6912F0020FB2
:1040900011D0DA6812F0020F0DD06FF002021A612F
:1040A0000123037703689B6913F0030F79D0FFF7AF
:1040B000E6FF0023237723681A6912F0040F12D059
:1040C000DA6812F0040F0ED06FF004021A610223B6
:1040D000237723689B6913F4407F68D02046FFF75D
:1040E000CEFF0023237723681A6912F0080F12D03D
:1040F000DA6812F0080F0ED06FF008021A6104237C
:1041000023772368DB6913F0030F57D02046FFF7AE
:10411000B6FF0023237723681A6912F0100F12D01C
:10412000DA6812F0100F0ED06FF010021A61082337
:1041300023772368DB6913F4407F46D02046FFF7DE
:104140009EFF0023237723681A6912F0010F03D022
:10415000DA6812F0010F3FD123681A6912F0800F5C
:1041600003D0DA6812F0800F3DD123681A6912F487
:10417000807F03D0DA6812F0800F3BD123681A6980
:1041800012F0400F03D0DA6812F0400F39D12368E3
:104190001A6912F0200F03D0DA6812F0200F37D11D
:1041A00010BDFFF76BFF2046FFF76AFF81E720464F
:1041B000FFF764FF2046FFF763FF92E72046FFF713
:1041C0005DFF2046FFF75CFFA3E72046FFF756FFA1
:1041D0002046FFF755FFB4E76FF001021A61204651
:1041E000FEF7D0F8B8E76FF080021A61204600F0C1
:1041F000B8F8BAE76FF480721A61204600F0B2F89E
:10420000BCE76FF040021A612046FFF73AFFBEE7B5
:104210006FF020021A61204600F0A2F8C0E700000B
:1042200070B403683A4CA04214BF00240124B0F1DA
:10423000804F14BF224644F00102AAB9354DA8426E
:1042400014BF00250125344EB0420DD065B905F1EB
:10425000804505F58235A84214BF0025012506F5E5
:104260000066B04200D01DB123F070034D682B43AF
:10427000002A33D1274A904214BF00220122264D42
:10428000A8422BD052BB02F1804202F5823290420A
:1042900014BF0022012205F50065A8421ED0EAB92C
:1042A0001E4A904214BF0022012205F59A35A84209
:1042B00014D09AB91A4A904214BF0022012205F57F
:1042C0000065A8420AD04AB9164A904214BF00229B
:1042D0000122A5F59635A84200D01AB123F4407307
:1042E000CA68134323F080034A69134303608A6852
:1042F000C2620A6882620C4B984214BF234644F0A3
:1043000001030BB10B6903630123436170BC704768
:10431000000001400008004000040040004401404B
:10432000001800400020004000040140B0B110B56A
:10433000044690F83D3063B1022384F83D302146B5
:1043400051F8040BFFF76CFF012384F83D30002087
:1043500010BD80F83C30FFF779FEEDE70120704793
:10436000704770477047000038B50446836802699B
:10437000134342691343C2691343016808689F4AA3
:10438000024013430B602268536823F44053E168F2
:104390000B435360A269236A1A4321688B6823F494
:1043A000306313438B602368954A934219D0954A32
:1043B000934229D0944A93423ED0944A934262D089
:1043C000934A934271D0934A934200F08380924A79
:1043D000934200F09480914A934200F0A58010250A
:1043E0003AE08F4BD3F8903003F00303032B09D846
:1043F000DFE803F00204AE0601252DE004252BE0E2
:10440000082529E0102527E0854BD3F8903003F0EC
:104410000C030C2B0ED8DFE803F0070D0D0D090D72
:104420000D0D9D0D0D0D0B00002515E0042513E06D
:10443000082511E010250FE0794BD3F8903003F0F8
:104440003003202B00F0888019D8002B00F08680E4
:10445000102B40F085800425E369B3F5004F00F090
:10446000AB80082D00F24081DFE815F0070118014C
:1044700022013E012B013E013E013E013501302B60
:1044800070D10825E8E7664BD3F8903003F0C003FD
:10449000802B69D005D8002B68D0402B68D104252B
:1044A000DAE7C02B66D10825D6E75D4BD3F890300C
:1044B00003F44073B3F5007F5ED006D8002B5DD0C7
:1044C000B3F5807F5CD10425C6E7B3F5407F59D1B1
:1044D0000825C1E7524BD3F8903003F44063B3F59D
:1044E000006F51D006D8002B50D0B3F5806F4FD15C
:1044F0000425B1E7B3F5406F4CD10825ACE7484B34
:10450000D3F8903003F44053B3F5005F44D006D89D
:10451000002B43D0B3F5805F42D104259CE7B3F56F
:10452000405F3FD1082597E73D4BD3F8903003F427
:104530004043B3F5004F37D005D8BBB3B3F5804F38
:1045400036D1042588E7B3F5404F33D1082583E7FA
:10455000022581E702257FE702257DE700257BE72D
:10456000102579E7102577E7022575E7002573E721
:10457000102571E710256FE702256DE700256BE731
:10458000102569E7102567E7022565E7012563E740
:10459000102561E710255FE702255DE700255BE751
:1045A000102559E7102557E7022555E7002553E761
:1045B000102551E710254FE7082D5BD8DFE805F0FF
:1045C00005323D5A465A5A5A5100FEF719FC6268A4
:1045D000530803EB4003B3FBF2F39BB2A3F11001CA
:1045E0004FF6EF72914200F282809AB222F00F02EF
:1045F000C3F3420313432268D3607BE0F369FFEF08
:10460000001001400044004000480040004C0040C1
:10461000005000400014014000780040007C004041
:1046200000380240FEF7FCFB6268530803EB4003CE
:10463000B3FBF2F39BB20025D0E76268304B03EB8B
:104640005203B3FBF2F39BB20025C7E7FEF7CCFAA7
:104650006268530803EB4003B3FBF2F39BB20025FF
:10466000BCE76268530803F58033B3FBF2F39BB2F7
:104670000025B3E701250023B0E7FEF7C1FB626820
:1046800000EB5203B3FBF2F39BB2A3F110014FF620
:10469000EF7291422DD82268D3602BE0FEF7C0FB69
:1046A000626800EB5203B3FBF2F39BB20025ECE728
:1046B0006268144B03EB5203B3FBF2F39BB2002589
:1046C000E3E7FEF791FA626800EB5203B3FBF2F303
:1046D0009BB20025D9E76268530803F50043B3FB9A
:1046E000F2F39BB20025D0E701250023CDE7012599
:1046F00000E00125002323666366284638BD00BF1D
:104700000048E8010024F400436A13F0010F06D0CA
:104710000268536823F40033816A0B435360436A91
:1047200013F0020F06D00268536823F48033C16A85
:104730000B435360436A13F0040F06D002685368BA
:1047400023F48023016B0B435360436A13F0080F7B
:1047500006D00268536823F40043416B0B43536057
:10476000436A13F0100F06D00268936823F4805355
:10477000816B0B439360436A13F0200F06D00268ED
:10478000936823F40053C16B0B439360436A13F0A7
:10479000400F0AD00268536823F48013016C0B4366
:1047A0005360036CB3F5801F0BD0436A13F0800F86
:1047B00006D00268536823F40023816C0B435360D6
:1047C00070470268536823F4C003416C0B43536085
:1047D000EBE72DE9F84305460F4616469946DDF806
:1047E00020802C68E46937EA04030CBF012400240C
:1047F000B4423CD1B8F1FF3FF3D0FFF733F8A0EB60
:104800000900404521D8B8F1000F1ED02B681A6866
:1048100012F0040FE5D0DA6912F4006FE1D04FF422
:1048200000621A622A68136823F4D07313602A683E
:10483000936823F00103936020236B67AB67EB67FA
:10484000002385F87030032012E02A68136823F4EF
:10485000D07313602A68936823F0010393602023C8
:104860006B67AB67002385F87030032000E0002001
:10487000BDE8F8832DE9F04182B01E46436F202B3E
:1048800059D104460D469046B2FA82F35B090029DD
:1048900008BF0123002B52D190F87030012B50D06B
:1048A000012380F870300023C36721234367FEF79C
:1048B000D9FF0746A4F85080A4F85280A368B3F546
:1048C000805F05D04FF00008002384F8703014E0BA
:1048D000236913B14FF00008F6E7A8460025F3E777
:1048E00038F8023B2268C3F308039362B4F85220FD
:1048F00092B2013A92B2A4F85220B4F852309BB26C
:1049000073B100963B46002280212046FFF761FFED
:10491000C8B9002DE4D015F8012B23689A62E5E7A9
:1049200000963B46002240212046FFF752FF60B927
:104930002023636700E0022002B0BDE8F08101207F
:10494000FAE70220F8E70320F6E70320F4E730B5A2
:1049500083B004460023C367FEF784FF054623683F
:104960001B6813F0080F0CD123681B6813F0040FA9
:1049700015D120236367A367002084F8700003B07B
:1049800030BD6FF07E430093034600224FF40011C8
:104990002046FFF71EFF0028E6D00320EFE76FF068
:1049A0007E4300932B4600224FF480012046FFF700
:1049B00010FF0028DDD00320E1E768B310B50446FE
:1049C000436F03B3242363672268136823F0010352
:1049D00013602046FFF7C8FC012813D0636ABBB9F7
:1049E0002268536823F4904353602268936823F04D
:1049F0002A0393602268136843F001031360204682
:104A0000FFF7A5FF10BD80F87030FDF7C1FDD9E7B5
:104A10002046FFF779FEE3E701207047054BD3F806
:104A2000882042F47002C3F888204FF000629A6038
:104A3000704700BF00ED00E000F1080343604FF055
:104A4000FF328260C360036100230360704700236C
:104A50000361704743684B609A688A60516099604F
:104A60000861036801330360704730B40D68B5F125
:104A7000FF3F11D000F108031C465B681A68AA4288
:104A8000FAD963684B6099608C6061600861036863
:104A90000133036030BC70470469F2E70369416881
:104AA00082688A60416851605A68824206D000225A
:104AB00002611A68013A1A601868704782685A6081
:104AC000F5E710B5044601F055FDA26BE36B9A4281
:104AD00004D0002401F074FD204610BD0124F9E744
:104AE00010B5044601F046FDA36B23B9012401F083
:104AF00067FD204610BD0024F9E770B50446154651
:104B0000866B026C5AB903681BB100200136A6639C
:104B100070BD806801F03CF80023A360F6E76DB932
:104B2000406801F0B3FE226C636813446360A268BE
:104B3000934219D3236863602846E7E7C06801F011
:104B4000A5FE226C5142E3689B1AE36022689342FF
:104B500002D2A3680B44E360022D01D00020D5E708
:104B600026B1013E0020D1E72846CFE70020CDE75F
:104B70000346026C6AB110B50846D9681144D96081
:104B80009C68A14201D31968D960D96801F07EFE02
:104B900010BD704738B5054601F0ECFC95F845406E
:104BA00064B203E000F0DEFF013C64B2002C08DDDB
:104BB0006B6A33B105F1240000F03AFF0028F3D00E
:104BC000F0E7FF2385F8453001F0FAFC01F0D2FC54
:104BD00095F8444064B203E000F0C4FF013C64B2C5
:104BE000002C08DD2B6933B105F1100000F020FF27
:104BF0000028F3D0F0E7FF2385F8443001F0E0FC13
:104C000038BD000038B5E0B10D46044601F0B2FCF5
:104C10002168E26B236C03FB0210A0600020A063FC
:104C20006160013A02FB0313E360FF2384F8443020
:104C300084F84530FDB9236973B901F0C1FC012046
:104C400038BD4FF0500372B683F31188BFF36F8FF6
:104C5000BFF34F8F62B6FEE704F1100000F0E8FEEC
:104C60000028EAD0084B4FF080521A60BFF34F8FF4
:104C7000BFF36F8FE1E704F11000FFF7DDFE04F1F1
:104C80002400FFF7D9FED8E704ED00E038B51D4653
:104C9000049C0B4649B92460E0632364012120464B
:104CA000FFF7B0FF84F84C5038BD2260F4E750B9EC
:104CB0004FF0500372B683F31188BFF36F8FBFF3C9
:104CC0004F8F62B6FEE730B585B01C468BB10B1E28
:104CD00018BF0123002A08BF0123ABB94FF05003CE
:104CE00072B683F31188BFF36F8FBFF34F8F62B635
:104CF000FEE74FF0500372B683F31188BFF36F8F56
:104D0000BFF34F8F62B6FEE7B1FA81F35B09002A69
:104D100018BF012353B94FF0500372B683F31188C3
:104D2000BFF36F8FBFF34F8F62B6FEE7502303933D
:104D3000039B502B0AD04FF0500372B683F31188B7
:104D4000BFF36F8FBFF34F8F62B6FEE7039B012364
:104D500084F8463000949DF82030FFF797FF2046F6
:104D600005B030BD50B94FF0500372B683F31188CF
:104D7000BFF36F8FBFF34F8F62B6FEE7F0B583B01E
:104D80000C4616460746A1B101FB00F0503001F079
:104D9000CDFA054650B1002380F8463000903346E6
:104DA00000F1500221463846FFF770FF284603B055
:104DB000F0BD0846EAE70000F0B585B0019298B171
:104DC0000E461D460446D1B1022D26D1E36B012BC0
:104DD00023D04FF0500372B683F31188BFF36F8F67
:104DE000BFF34F8F62B6FEE74FF0500372B683F306
:104DF0001188BFF36F8FBFF34F8F62B6FEE7036C6E
:104E0000002BE1D04FF0500372B683F31188BFF34B
:104E10006F8FBFF34F8F62B6FEE700F0A9FE074623
:104E200068B9019B002B46D04FF0500372B683F354
:104E30001188BFF36F8FBFF34F8F62B6FEE7002775
:104E400039E02A4631462046FFF757FE626A6AB9C2
:104E500038B13C4B4FF080521A60BFF34F8FBFF315
:104E60006F8F01F0ADFB012005B0F0BD04F124000F
:104E700000F0DEFD0028F4D0324B4FF080521A6073
:104E8000BFF34F8FBFF36F8FEBE701F099FB00206B
:104E9000EAE702A800F014FE012719E0002384F8D5
:104EA000443021E0002384F8453023E02046FFF71A
:104EB00071FE00F091FC01F05DFBA26BE36B9A4286
:104EC000BFD3022DBDD0019B002BDED0002FE0D040
:104ED00001F076FB00F0E4FB01F04CFB94F8443069
:104EE0005BB2B3F1FF3FD9D094F845305BB2B3F178
:104EF000FF3FD7D001F064FB01A902A800F0ECFD50
:104F0000C8B92046FFF7DDFD0028CFD0019904F194
:104F1000100000F055FD2046FFF73CFE00F05CFC61
:104F20000028C8D1074B4FF080521A60BFF34F8F53
:104F3000BFF36F8FBFE72046FFF72CFE00F04CFC5D
:104F4000002091E704ED00E02DE9F843A0B1894687
:104F500090461F460446D1B1022F26D1E36B012BA8
:104F600023D04FF0500372B683F31188BFF36F8FD5
:104F7000BFF34F8F62B6FEE74FF0500372B683F374
:104F80001188BFF36F8FBFF34F8F62B6FEE7036CDC
:104F9000002BE1D04FF0500372B683F31188BFF3BA
:104FA0006F8FBFF34F8F62B6FEE701F0EFFBEFF3B9
:104FB00011864FF0500372B683F31188BFF36F8FE1
:104FC000BFF34F8F62B6A26BE36B9A4206D3022FF8
:104FD00004D0002086F31188BDE8F88394F845508A
:104FE0006DB23A4649462046FFF787FDB5F1FF3FCF
:104FF00005D06B1C5BB284F845300120EAE7636A98
:105000000BB90120E6E704F1240000F011FD30B1F6
:10501000B8F1000F05D00120C8F80000DAE7012040
:10502000D8E70120D6E70000F0B585B00192A0B125
:105030000E460446E1B100F09BFD074630BB019BE4
:10504000002B62D04FF0500372B683F31188BFF388
:105050006F8FBFF34F8F62B6FEE74FF0500372B60B
:1050600083F31188BFF36F8FBFF34F8F62B6FEE7F4
:10507000036C002BDFD04FF0500372B683F311881E
:10508000BFF36F8FBFF34F8F62B6FEE700273CE0A0
:1050900031462046FFF76CFD013DA563236923B926
:1050A00001F08EFA012005B0F0BD04F1100000F00F
:1050B000BFFC0028F4D0354B4FF080521A60BFF38C
:1050C0004F8FBFF36F8FEBE701F07AFA0020EAE72A
:1050D00002A800F0F5FC012721E0002384F8443009
:1050E00029E0002384F845302BE02046FFF752FDED
:1050F00000F072FB09E02046FFF74CFD00F06CFB6E
:105100002046FFF7EDFC00283DD101F033FAA56BF6
:10511000002DBDD1019B002BD6D0002FD8D001F09F
:105120004FFA00F0BDFA01F025FA94F844305BB272
:10513000B3F1FF3FD1D094F845305BB2B3F1FF3FFC
:10514000CFD001F03DFA01A902A800F0C5FC00286B
:10515000D1D12046FFF7C4FC0028C6D0019904F144
:10516000240000F02DFC2046FFF714FD00F034FB76
:105170000028CAD1054B4FF080521A60BFF34F8F01
:10518000BFF36F8FC1E700208DE700BF04ED00E0A3
:10519000002300E00133072B0BD8064A52F83320D6
:1051A000002AF7D1034A42F8331002EBC3035860D8
:1051B00070477047A44C002070B504460D46164653
:1051C00001F0D8F994F844305BB2B3F1FF3F0DD051
:1051D00094F845305BB2B3F1FF3F0BD001F0F0F92A
:1051E000A36B5BB12046FFF7D5FC70BD002384F8AC
:1051F0004430EDE7002384F84530EFE73246294696
:1052000004F1240000F0F6FBECE70000084B1B68FB
:105210001B6823B9074B4FF0FF321A607047044BED
:105220001B68DB68DB685A68024B1A60704700BF76
:1052300080020020280700202DE9F84F80460D4607
:10524000934699460A9EDDF82CA00C9C9200A5215D
:10525000206B01F029FB276B6FF040435B4407EBA9
:10526000830727F0070785B300220F2A07D8A95C18
:10527000A31883F83410AB5C0BB10132F5E70023BF
:1052800084F84330372E00D93726E662E6640025DD
:105290002565201DFFF7DBFB04F11800FFF7D7FBA6
:1052A0002461C6F13806A6616462656584F85850C9
:1052B0004A464146384601F033F92060BAF1000F02
:1052C00001D0CAF80040BDE8F88F002384F83430DC
:1052D000D8E7000038B50024372C08D804EB840246
:1052E00093000E481844FFF7A7FB0134F4E70C4D78
:1052F0002846FFF7A1FB0B4C2046FFF79DFB0A4811
:10530000FFF79AFB0948FFF797FB0948FFF794FB63
:10531000084B1D60084B1C6038BD00BF8802002090
:105320000007002014070020300700205C07002041
:1053300048070020800200208402002010B50446A7
:1053400001F018F9214A136801331360204B1B68E0
:105350005BB1204B1B686BB91D4B1B68DA6AE36AB3
:105360009A4207D81A4B1C6004E0194B1C60136862
:10537000012B27D0184A1368013313606364E06A75
:10538000164B1B68984201D9144B186000EB800043
:10539000211D134B03EB8000FFF75CFB01F010F9BC
:1053A0000C4B1B686BB10A4B1B68DA6AE36A9A42C2
:1053B00007D20C4B4FF080521A60BFF34F8FBFF3F0
:1053C0006F8F10BDFFF786FFD4E700BFE80600200F
:1053D0007C02002044070020F8060020FC06002084
:1053E0008802002004ED00E010B5044690F8593022
:1053F00073B1012B13D0022B10D04FF0500372B6B3
:1054000083F31188BFF36F8FBFF34F8F62B6FEE750
:10541000006B01F007F8204601F004F810BD01F020
:1054200001F8FBE70F4B1B68D3B110B501F0A2F8F0
:105430000D4BDB68DC68201DFFF730FB0B4A13685F
:10544000013B1360074A1368013B136001F0B8F891
:105450002046FFF7C9FF034B1B68002BE6D110BDA8
:10546000704700BFEC0600205C070020E806002023
:1054700008B5FFF7D7FF064B1B68012BF9D9054B81
:105480004FF080521A60BFF34F8FBFF36F8FF0E77A
:105490008802002004ED00E070B504460D46194B6B
:1054A0001E68194B18680430FFF7F8FAB4F1FF3F93
:1054B00014BF00230123002D08BF00236BB934441F
:1054C000114B1B685C60A6420ED9104B18680E4B3E
:1054D00019680431FFF7C9FA70BD0B4B1968043124
:1054E0000B48FFF7B7FAF7E70A4B1868064B19683D
:1054F0000431FFF7BAFA084B1B68A342ECD9064BFC
:105500001C60E9E7700700207C0200208402002074
:1055100048070020800200202807002070B586B0D0
:105520000B9D0C9C85B1D4B15C260496049E5C2E28
:1055300020D04FF0500372B683F31188BFF36F8F02
:10554000BFF34F8F62B6FEE74FF0500372B683F39E
:105550001188BFF36F8FBFF34F8F62B6FEE74FF036
:10556000500372B683F31188BFF36F8FBFF34F8F71
:1055700062B6FEE7049E2563022584F85950002593
:105580000395029405AD01950A9D0095FFF754FE21
:105590002046FFF7D3FE059806B070BD2DE9F04315
:1055A00085B00746884614461E46900000F0BEFEB1
:1055B00000B381465C2000F0B9FE0546B0B1C0F8EA
:1055C0003090E5B1002385F85930039302950D9B87
:1055D00001930C9B00933346224641463846FFF721
:1055E0002BFE2846FFF7AAFE012005E0484600F002
:1055F00019FFE6E74FF0FF3005B0BDE8F0834FF04C
:10560000FF30F9E710B588B000240594069407AA86
:1056100006A905A800F014FE059B0293069B0193C2
:1056200000942346079A19491948FFF777FF48B1B4
:1056300000F06AFB0346012B06D0B3F1FF3F1AD0FE
:1056400008B010BD0023F6E74FF0500372B683F3A5
:105650001188BFF36F8FBFF34F8F62B60D4B4FF0C2
:10566000FF321A600C4B01221A600C4B00221A60A8
:1056700001F024F8E4E74FF0500372B683F3118889
:10568000BFF36F8FBFF34F8F62B6FEE714A400081D
:1056900071540008280700204407002070070020EC
:1056A000024A136801331360704700BFF4060020FC
:1056B000014B1868704700BF70070020F8B53B4BDE
:1056C0001B68002B67D13A4B1D6801351D60D5B9A9
:1056D000384B1B681B6853B14FF0500372B683F30D
:1056E0001188BFF36F8FBFF34F8F62B6FEE7314A69
:1056F0001168314B186810601960304A1368013323
:105700001360FFF783FD2E4B1B68AB420CD90024BE
:105710002C4B1B68DB6A03EB83039A002A4B9B58D4
:10572000012B3DD901243BE0002416E0244B4FF02F
:10573000FF321A60ECE7224A1360E9E703EB8303C8
:105740009A00394620481044FFF784F9F26A1D4B4D
:105750001B68DB6A9A4200D30124164B1B681B6846
:10576000002BE3D0134B1B68DB68DE6873689D4237
:10577000E1D3371D3846FFF791F9B36A1BB106F143
:105780001800FFF78BF9F36A104A12689342D5D9D3
:105790000E4A1360D2E70E4A1368013313600024E7
:1057A0000C4B1B6803B101242046F8BDF406002011
:1057B0007007002080020020840200202C070020B7
:1057C000280700207C02002088020020FC06002020
:1057D000F00600207407002038B5354B1B6853B91C
:1057E0004FF0500372B683F31188BFF36F8FBFF38E
:1057F0004F8F62B6FEE700F0BDFE2D4B1A68013AEE
:105800001A601B68002B4DD12A4B1B680BB9002472
:1058100049E00024284B1B681BB3274BDB68DC687E
:1058200004F11800FFF73AF9251D2846FFF736F96D
:10583000E06A224B1B68984201D9204B186000EBAC
:10584000800029461E4B03EB8000FFF703F9E26A54
:105850001C4B1B68DB6A9A42DCD31B4B01221A608B
:10586000D8E70CB1FFF7D2FC184B1C6874B9164B83
:105870001C68C4B1164B4FF080521A60BFF34F8FB3
:10588000BFF36F8F01240EE0013C07D0FFF716FF36
:105890000028F9D00C4B01221A60F5E70B4B0022CF
:1058A0001A60E4E7002400F08BFE204638BD00BFFC
:1058B000F4060020E806002030070020FC06002047
:1058C000880200207C02002074070020F0060020DF
:1058D00004ED00E010B5B8B10446104B1B6853B19D
:1058E0004FF0500372B683F31188BFF36F8FBFF38D
:1058F0004F8F62B6FEE7FFF7D3FE00212046FFF789
:10590000CBFDFFF769FF38B9054B4FF080521A60A5
:10591000BFF34F8FBFF36F8F10BD00BFF4060020A1
:1059200004ED00E0214B1B681BB1214B01221A60E2
:1059300070471F4B00221A601E4B1B6803EB83014C
:105940008A001D498A586AB90BB1013BF6E74FF04E
:10595000500372B683F31188BFF36F8FBFF34F8F7D
:1059600062B6FEE710B403EB830082000A4450687D
:105970004068506003EB8304A200144608321144CF
:1059800088420DD003EB830291000B4A0A4452680F
:10599000D1680A4A1160074A13605DF8044B7047EA
:1059A0004068054A22445060ECE700BFF40600203E
:1059B00074070020FC060020880200207C020020E2
:1059C00058B110B50C460A4B19681831FFF74DF85D
:1059D00001212046FFF760FD10BD4FF0500372B665
:1059E00083F31188BFF36F8FBFF34F8F62B6FEE76B
:1059F0007C02002038B570B10C4615460B4B196877
:105A00001831FFF727F80DB14FF0FF342946204633
:105A1000FFF742FD38BD4FF0500372B683F3118893
:105A2000BFF36F8FBFF34F8F62B6FEE77C0200209B
:105A300038B5C368DC6824B304F118052846FFF7BD
:105A40002DF8194B1B683BBB251D2846FFF726F890
:105A5000E06A164B1B68984201D9144B186000EBA2
:105A600080002946124B03EB8000FEF7F3FFE26A49
:105A7000104B1B68DB6A9A4213D901200E4B186049
:105A800010E04FF0500372B683F31188BFF36F8FAD
:105A9000BFF34F8F62B6FEE729460848FEF7DAFFEC
:105AA000E5E7002038BD00BFF4060020FC0600201A
:105AB000880200207C0200207407002030070020AC
:105AC000034B1B680360034B1B684360704700BFB8
:105AD0002C07002070070020F8B5C8B10C46054619
